{
  "_format": "hh-sol-artifact-1",
  "contractName": "My404",
  "sourceName": "contracts/My404.sol",
  "abi": [
    {
      "inputs": [
        {
          "internalType": "address",
          "name": "_owner",
          "type": "address"
        },
        {
          "internalType": "bytes32",
          "name": "root",
          "type": "bytes32"
        }
      ],
      "stateMutability": "nonpayable",
      "type": "constructor"
    },
    {
      "inputs": [],
      "name": "AlreadyExists",
      "type": "error"
    },
    {
      "inputs": [],
      "name": "InvalidOperator",
      "type": "error"
    },
    {
      "inputs": [],
      "name": "InvalidOwner",
      "type": "error"
    },
    {
      "inputs": [],
      "name": "InvalidRecipient",
      "type": "error"
    },
    {
      "inputs": [],
      "name": "InvalidSender",
      "type": "error"
    },
    {
      "inputs": [],
      "name": "NotFound",
      "type": "error"
    },
    {
      "inputs": [],
      "name": "Unauthorized",
      "type": "error"
    },
    {
      "inputs": [],
      "name": "UnsafeRecipient",
      "type": "error"
    },
    {
      "anonymous": false,
      "inputs": [
        {
          "indexed": true,
          "internalType": "address",
          "name": "owner",
          "type": "address"
        },
        {
          "indexed": true,
          "internalType": "address",
          "name": "spender",
          "type": "address"
        },
        {
          "indexed": false,
          "internalType": "uint256",
          "name": "amount",
          "type": "uint256"
        }
      ],
      "name": "Approval",
      "type": "event"
    },
    {
      "anonymous": false,
      "inputs": [
        {
          "indexed": true,
          "internalType": "address",
          "name": "owner",
          "type": "address"
        },
        {
          "indexed": true,
          "internalType": "address",
          "name": "operator",
          "type": "address"
        },
        {
          "indexed": false,
          "internalType": "bool",
          "name": "approved",
          "type": "bool"
        }
      ],
      "name": "ApprovalForAll",
      "type": "event"
    },
    {
      "anonymous": false,
      "inputs": [
        {
          "indexed": true,
          "internalType": "address",
          "name": "from",
          "type": "address"
        },
        {
          "indexed": true,
          "internalType": "address",
          "name": "to",
          "type": "address"
        },
        {
          "indexed": false,
          "internalType": "uint256",
          "name": "amount",
          "type": "uint256"
        }
      ],
      "name": "ERC20Transfer",
      "type": "event"
    },
    {
      "anonymous": false,
      "inputs": [
        {
          "indexed": true,
          "internalType": "address",
          "name": "owner",
          "type": "address"
        },
        {
          "indexed": true,
          "internalType": "address",
          "name": "spender",
          "type": "address"
        },
        {
          "indexed": true,
          "internalType": "uint256",
          "name": "id",
          "type": "uint256"
        }
      ],
      "name": "ERC721Approval",
      "type": "event"
    },
    {
      "anonymous": false,
      "inputs": [
        {
          "indexed": true,
          "internalType": "address",
          "name": "user",
          "type": "address"
        },
        {
          "indexed": true,
          "internalType": "address",
          "name": "newOwner",
          "type": "address"
        }
      ],
      "name": "OwnershipTransferred",
      "type": "event"
    },
    {
      "anonymous": false,
      "inputs": [
        {
          "indexed": true,
          "internalType": "address",
          "name": "from",
          "type": "address"
        },
        {
          "indexed": true,
          "internalType": "address",
          "name": "to",
          "type": "address"
        },
        {
          "indexed": true,
          "internalType": "uint256",
          "name": "id",
          "type": "uint256"
        }
      ],
      "name": "Transfer",
      "type": "event"
    },
    {
      "inputs": [
        {
          "internalType": "address",
          "name": "",
          "type": "address"
        },
        {
          "internalType": "address",
          "name": "",
          "type": "address"
        }
      ],
      "name": "allowance",
      "outputs": [
        {
          "internalType": "uint256",
          "name": "",
          "type": "uint256"
        }
      ],
      "stateMutability": "view",
      "type": "function"
    },
    {
      "inputs": [
        {
          "internalType": "address",
          "name": "spender",
          "type": "address"
        },
        {
          "internalType": "uint256",
          "name": "amountOrId",
          "type": "uint256"
        }
      ],
      "name": "approve",
      "outputs": [
        {
          "internalType": "bool",
          "name": "",
          "type": "bool"
        }
      ],
      "stateMutability": "nonpayable",
      "type": "function"
    },
    {
      "inputs": [
        {
          "internalType": "address",
          "name": "",
          "type": "address"
        }
      ],
      "name": "balanceOf",
      "outputs": [
        {
          "internalType": "uint256",
          "name": "",
          "type": "uint256"
        }
      ],
      "stateMutability": "view",
      "type": "function"
    },
    {
      "inputs": [],
      "name": "baseTokenURI",
      "outputs": [
        {
          "internalType": "string",
          "name": "",
          "type": "string"
        }
      ],
      "stateMutability": "view",
      "type": "function"
    },
    {
      "inputs": [
        {
          "internalType": "uint256[]",
          "name": "tokenIds",
          "type": "uint256[]"
        }
      ],
      "name": "burnNFTtoToken",
      "outputs": [],
      "stateMutability": "nonpayable",
      "type": "function"
    },
    {
      "inputs": [],
      "name": "burned",
      "outputs": [
        {
          "internalType": "uint256",
          "name": "",
          "type": "uint256"
        }
      ],
      "stateMutability": "view",
      "type": "function"
    },
    {
      "inputs": [],
      "name": "decimals",
      "outputs": [
        {
          "internalType": "uint8",
          "name": "",
          "type": "uint8"
        }
      ],
      "stateMutability": "view",
      "type": "function"
    },
    {
      "inputs": [
        {
          "internalType": "uint256",
          "name": "",
          "type": "uint256"
        }
      ],
      "name": "getApproved",
      "outputs": [
        {
          "internalType": "address",
          "name": "",
          "type": "address"
        }
      ],
      "stateMutability": "view",
      "type": "function"
    },
    {
      "inputs": [
        {
          "internalType": "address",
          "name": "",
          "type": "address"
        },
        {
          "internalType": "address",
          "name": "",
          "type": "address"
        }
      ],
      "name": "isApprovedForAll",
      "outputs": [
        {
          "internalType": "bool",
          "name": "",
          "type": "bool"
        }
      ],
      "stateMutability": "view",
      "type": "function"
    },
    {
      "inputs": [],
      "name": "maxMintAmount",
      "outputs": [
        {
          "internalType": "uint256",
          "name": "",
          "type": "uint256"
        }
      ],
      "stateMutability": "view",
      "type": "function"
    },
    {
      "inputs": [],
      "name": "merkleRoot",
      "outputs": [
        {
          "internalType": "bytes32",
          "name": "",
          "type": "bytes32"
        }
      ],
      "stateMutability": "view",
      "type": "function"
    },
    {
      "inputs": [],
      "name": "mintPrice",
      "outputs": [
        {
          "internalType": "uint256",
          "name": "",
          "type": "uint256"
        }
      ],
      "stateMutability": "view",
      "type": "function"
    },
    {
      "inputs": [],
      "name": "minted",
      "outputs": [
        {
          "internalType": "uint256",
          "name": "",
          "type": "uint256"
        }
      ],
      "stateMutability": "view",
      "type": "function"
    },
    {
      "inputs": [
        {
          "internalType": "address",
          "name": "",
          "type": "address"
        }
      ],
      "name": "mintedAddress",
      "outputs": [
        {
          "internalType": "uint256",
          "name": "",
          "type": "uint256"
        }
      ],
      "stateMutability": "view",
      "type": "function"
    },
    {
      "inputs": [],
      "name": "name",
      "outputs": [
        {
          "internalType": "string",
          "name": "",
          "type": "string"
        }
      ],
      "stateMutability": "view",
      "type": "function"
    },
    {
      "inputs": [
        {
          "internalType": "address",
          "name": "addr",
          "type": "address"
        }
      ],
      "name": "owned",
      "outputs": [
        {
          "internalType": "uint256[]",
          "name": "_tokenid",
          "type": "uint256[]"
        }
      ],
      "stateMutability": "view",
      "type": "function"
    },
    {
      "inputs": [
        {
          "internalType": "uint256",
          "name": "tokenid",
          "type": "uint256"
        }
      ],
      "name": "ownedindex",
      "outputs": [
        {
          "internalType": "uint256",
          "name": "id",
          "type": "uint256"
        }
      ],
      "stateMutability": "view",
      "type": "function"
    },
    {
      "inputs": [],
      "name": "owner",
      "outputs": [
        {
          "internalType": "address",
          "name": "",
          "type": "address"
        }
      ],
      "stateMutability": "view",
      "type": "function"
    },
    {
      "inputs": [
        {
          "internalType": "uint256",
          "name": "id",
          "type": "uint256"
        }
      ],
      "name": "ownerOf",
      "outputs": [
        {
          "internalType": "address",
          "name": "userowner",
          "type": "address"
        }
      ],
      "stateMutability": "view",
      "type": "function"
    },
    {
      "inputs": [
        {
          "internalType": "uint256",
          "name": "amount",
          "type": "uint256"
        }
      ],
      "name": "publicMint",
      "outputs": [],
      "stateMutability": "payable",
      "type": "function"
    },
    {
      "inputs": [],
      "name": "revokeOwnership",
      "outputs": [],
      "stateMutability": "nonpayable",
      "type": "function"
    },
    {
      "inputs": [
        {
          "internalType": "address",
          "name": "from",
          "type": "address"
        },
        {
          "internalType": "address",
          "name": "to",
          "type": "address"
        },
        {
          "internalType": "uint256",
          "name": "id",
          "type": "uint256"
        }
      ],
      "name": "safeTransferFrom",
      "outputs": [],
      "stateMutability": "nonpayable",
      "type": "function"
    },
    {
      "inputs": [
        {
          "internalType": "address",
          "name": "from",
          "type": "address"
        },
        {
          "internalType": "address",
          "name": "to",
          "type": "address"
        },
        {
          "internalType": "uint256",
          "name": "id",
          "type": "uint256"
        },
        {
          "internalType": "bytes",
          "name": "data",
          "type": "bytes"
        }
      ],
      "name": "safeTransferFrom",
      "outputs": [],
      "stateMutability": "nonpayable",
      "type": "function"
    },
    {
      "inputs": [
        {
          "internalType": "uint256",
          "name": "amount",
          "type": "uint256"
        }
      ],
      "name": "setAddSupply",
      "outputs": [],
      "stateMutability": "nonpayable",
      "type": "function"
    },
    {
      "inputs": [
        {
          "internalType": "address",
          "name": "operator",
          "type": "address"
        },
        {
          "internalType": "bool",
          "name": "approved",
          "type": "bool"
        }
      ],
      "name": "setApprovalForAll",
      "outputs": [],
      "stateMutability": "nonpayable",
      "type": "function"
    },
    {
      "inputs": [
        {
          "internalType": "bytes32",
          "name": "root",
          "type": "bytes32"
        }
      ],
      "name": "setMerkleRoot",
      "outputs": [],
      "stateMutability": "nonpayable",
      "type": "function"
    },
    {
      "inputs": [
        {
          "internalType": "uint256",
          "name": "price",
          "type": "uint256"
        }
      ],
      "name": "setMintPrice",
      "outputs": [],
      "stateMutability": "nonpayable",
      "type": "function"
    },
    {
      "inputs": [
        {
          "internalType": "string",
          "name": "_name",
          "type": "string"
        },
        {
          "internalType": "string",
          "name": "_symbol",
          "type": "string"
        }
      ],
      "name": "setNameSymbol",
      "outputs": [],
      "stateMutability": "nonpayable",
      "type": "function"
    },
    {
      "inputs": [
        {
          "internalType": "string",
          "name": "newTokenURI",
          "type": "string"
        }
      ],
      "name": "setTokenURI",
      "outputs": [],
      "stateMutability": "nonpayable",
      "type": "function"
    },
    {
      "inputs": [
        {
          "internalType": "bool",
          "name": "enable",
          "type": "bool"
        }
      ],
      "name": "setWLMintEnabled",
      "outputs": [],
      "stateMutability": "nonpayable",
      "type": "function"
    },
    {
      "inputs": [
        {
          "internalType": "uint256",
          "name": "price",
          "type": "uint256"
        }
      ],
      "name": "setWLPrice",
      "outputs": [],
      "stateMutability": "nonpayable",
      "type": "function"
    },
    {
      "inputs": [
        {
          "internalType": "uint256",
          "name": "timestamp",
          "type": "uint256"
        }
      ],
      "name": "setlockTime",
      "outputs": [],
      "stateMutability": "nonpayable",
      "type": "function"
    },
    {
      "inputs": [
        {
          "internalType": "uint256",
          "name": "amount",
          "type": "uint256"
        }
      ],
      "name": "setmaxMintAmount",
      "outputs": [],
      "stateMutability": "nonpayable",
      "type": "function"
    },
    {
      "inputs": [
        {
          "internalType": "uint256",
          "name": "amount",
          "type": "uint256"
        }
      ],
      "name": "spMintNFT",
      "outputs": [],
      "stateMutability": "nonpayable",
      "type": "function"
    },
    {
      "inputs": [],
      "name": "symbol",
      "outputs": [
        {
          "internalType": "string",
          "name": "",
          "type": "string"
        }
      ],
      "stateMutability": "view",
      "type": "function"
    },
    {
      "inputs": [],
      "name": "timelockTime",
      "outputs": [
        {
          "internalType": "uint256",
          "name": "",
          "type": "uint256"
        }
      ],
      "stateMutability": "view",
      "type": "function"
    },
    {
      "inputs": [
        {
          "internalType": "address[]",
          "name": "addr",
          "type": "address[]"
        },
        {
          "internalType": "uint256[]",
          "name": "amount",
          "type": "uint256[]"
        }
      ],
      "name": "tokenAirdrop",
      "outputs": [],
      "stateMutability": "nonpayable",
      "type": "function"
    },
    {
      "inputs": [
        {
          "internalType": "uint256",
          "name": "tokenId",
          "type": "uint256"
        }
      ],
      "name": "tokenURI",
      "outputs": [
        {
          "internalType": "string",
          "name": "",
          "type": "string"
        }
      ],
      "stateMutability": "view",
      "type": "function"
    },
    {
      "inputs": [],
      "name": "totalNFTSupply",
      "outputs": [
        {
          "internalType": "uint256",
          "name": "",
          "type": "uint256"
        }
      ],
      "stateMutability": "view",
      "type": "function"
    },
    {
      "inputs": [],
      "name": "totalSeasonSupply",
      "outputs": [
        {
          "internalType": "uint256",
          "name": "",
          "type": "uint256"
        }
      ],
      "stateMutability": "view",
      "type": "function"
    },
    {
      "inputs": [],
      "name": "totalTokenSupply",
      "outputs": [
        {
          "internalType": "uint256",
          "name": "",
          "type": "uint256"
        }
      ],
      "stateMutability": "view",
      "type": "function"
    },
    {
      "inputs": [
        {
          "internalType": "address",
          "name": "to",
          "type": "address"
        },
        {
          "internalType": "uint256",
          "name": "amount",
          "type": "uint256"
        }
      ],
      "name": "transfer",
      "outputs": [
        {
          "internalType": "bool",
          "name": "",
          "type": "bool"
        }
      ],
      "stateMutability": "nonpayable",
      "type": "function"
    },
    {
      "inputs": [
        {
          "internalType": "address",
          "name": "from",
          "type": "address"
        },
        {
          "internalType": "address",
          "name": "to",
          "type": "address"
        },
        {
          "internalType": "uint256",
          "name": "amountOrId",
          "type": "uint256"
        }
      ],
      "name": "transferFrom",
      "outputs": [
        {
          "internalType": "bool",
          "name": "",
          "type": "bool"
        }
      ],
      "stateMutability": "nonpayable",
      "type": "function"
    },
    {
      "inputs": [
        {
          "internalType": "address",
          "name": "_owner",
          "type": "address"
        }
      ],
      "name": "transferOwnership",
      "outputs": [],
      "stateMutability": "nonpayable",
      "type": "function"
    },
    {
      "inputs": [
        {
          "internalType": "uint256",
          "name": "amount",
          "type": "uint256"
        },
        {
          "internalType": "bytes32[]",
          "name": "proof",
          "type": "bytes32[]"
        }
      ],
      "name": "whitelistMint",
      "outputs": [],
      "stateMutability": "payable",
      "type": "function"
    },
    {
      "inputs": [],
      "name": "whitelistMintEnabled",
      "outputs": [
        {
          "internalType": "bool",
          "name": "",
          "type": "bool"
        }
      ],
      "stateMutability": "view",
      "type": "function"
    },
    {
      "inputs": [],
      "name": "withdrawAll",
      "outputs": [],
      "stateMutability": "payable",
      "type": "function"
    },
    {
      "inputs": [
        {
          "internalType": "address",
          "name": "",
          "type": "address"
        }
      ],
      "name": "wlAddress",
      "outputs": [
        {
          "internalType": "uint256",
          "name": "",
          "type": "uint256"
        }
      ],
      "stateMutability": "view",
      "type": "function"
    },
    {
      "inputs": [],
      "name": "wlPrice",
      "outputs": [
        {
          "internalType": "uint256",
          "name": "",
          "type": "uint256"
        }
      ],
      "stateMutability": "view",
      "type": "function"
    }
  ],
  "bytecode": "0x60e060405264174876e800600e5564174876e800600f5560146010553480156200002857600080fd5b50604051620059be380380620059be83398181016040528101906200004e919062000421565b6040518060400160405280600781526020017f4d793430346233000000000000000000000000000000000000000000000000008152506040518060400160405280600781526020017f4d5934303462330000000000000000000000000000000000000000000000000081525060126103e86103206010548780600073ffffffffffffffffffffffffffffffffffffffff168173ffffffffffffffffffffffffffffffffffffffff16036200012e576040517f49e27cff00000000000000000000000000000000000000000000000000000000815260040160405180910390fd5b806000806101000a81548173ffffffffffffffffffffffffffffffffffffffff021916908373ffffffffffffffffffffffffffffffffffffffff1602179055508073ffffffffffffffffffffffffffffffffffffffff16600073ffffffffffffffffffffffffffffffffffffffff167f8be0079c531659141344cd1fd0a4f28419497f9722a3daafe3b4186f6b6457e060405160405180910390a3508660019081620001db9190620006e2565b508560029081620001ed9190620006e2565b508460ff1660808160ff1681525050670de0b6b3a7640000620186a0620002159190620007f8565b84620002229190620007f8565b60a081815250508260c081815250508160038190555050505050505050670de0b6b3a7640000620186a0620002589190620007f8565b610320620002679190620007f8565b600660003073ffffffffffffffffffffffffffffffffffffffff1673ffffffffffffffffffffffffffffffffffffffff16815260200190815260200160002081905550670de0b6b3a7640000620186a0620002c39190620007f8565b60c8620002d19190620007f8565b600660008473ffffffffffffffffffffffffffffffffffffffff1673ffffffffffffffffffffffffffffffffffffffff168152602001908152602001600020819055506040518060600160405280603681526020016200598860369139600d90816200033e9190620006e2565b508060118190555060056014819055506001601260006101000a81548160ff0219169083151502179055506366103fcd601381905550505062000843565b600080fd5b600073ffffffffffffffffffffffffffffffffffffffff82169050919050565b6000620003ae8262000381565b9050919050565b620003c081620003a1565b8114620003cc57600080fd5b50565b600081519050620003e081620003b5565b92915050565b6000819050919050565b620003fb81620003e6565b81146200040757600080fd5b50565b6000815190506200041b81620003f0565b92915050565b600080604083850312156200043b576200043a6200037c565b5b60006200044b85828601620003cf565b92505060206200045e858286016200040a565b9150509250929050565b600081519050919050565b7f4e487b7100000000000000000000000000000000000000000000000000000000600052604160045260246000fd5b7f4e487b7100000000000000000000000000000000000000000000000000000000600052602260045260246000fd5b60006002820490506001821680620004ea57607f821691505b6020821081036200050057620004ff620004a2565b5b50919050565b60008190508160005260206000209050919050565b60006020601f8301049050919050565b600082821b905092915050565b6000600883026200056a7fffffffffffffffffffffffffffffffffffffffffffffffffffffffffffffffff826200052b565b6200057686836200052b565b95508019841693508086168417925050509392505050565b6000819050919050565b6000819050919050565b6000620005c3620005bd620005b7846200058e565b62000598565b6200058e565b9050919050565b6000819050919050565b620005df83620005a2565b620005f7620005ee82620005ca565b84845462000538565b825550505050565b600090565b6200060e620005ff565b6200061b818484620005d4565b505050565b5b8181101562000643576200063760008262000604565b60018101905062000621565b5050565b601f82111562000692576200065c8162000506565b62000667846200051b565b8101602085101562000677578190505b6200068f62000686856200051b565b83018262000620565b50505b505050565b600082821c905092915050565b6000620006b76000198460080262000697565b1980831691505092915050565b6000620006d28383620006a4565b9150826002028217905092915050565b620006ed8262000468565b67ffffffffffffffff81111562000709576200070862000473565b5b620007158254620004d1565b6200072282828562000647565b600060209050601f8311600181146200075a576000841562000745578287015190505b620007518582620006c4565b865550620007c1565b601f1984166200076a8662000506565b60005b8281101562000794578489015182556001820191506020850194506020810190506200076d565b86831015620007b45784890151620007b0601f891682620006a4565b8355505b6001600288020188555050505b505050505050565b7f4e487b7100000000000000000000000000000000000000000000000000000000600052601160045260246000fd5b600062000805826200058e565b915062000812836200058e565b925082820262000822816200058e565b915082820484148315176200083c576200083b620007c9565b5b5092915050565b60805160a05160c05161510e6200087a60003960008181612a52015261329601526000610fd501526000611a91015261510e6000f3fe60806040526004361061022e5760003560e01c806306fdde0314610233578063081812fc1461025e57806309226b671461029b578063095ea7b3146102c4578063133452ae146103015780631ca8b6cb1461032a5780631e6ce2c414610355578063239c70ae1461039257806323b872dd146103bd5780632b968958146103fa5780632db11544146104115780632eb4a7ab1461042d578063313ce5671461045857806342842e0e146104835780634f02c420146104ac578063504334c2146104d7578063630303c6146105005780636352211e1461053d5780636817c76c1461057a5780636caede3d146105a557806370a08231146105d057806373f425611461060d5780637c0c1e55146106385780637cb64759146106615780637ce7363f1461068a5780637f00c7a6146106b3578063853828b6146106dc5780638da5cb5b146106e6578063903b90991461071157806395d89b411461073a5780639938ad0114610765578063a22cb46514610790578063a9059cbb146107b9578063b1ab9317146107f6578063b634851814610833578063b88d4fde1461085e578063c7f8d01a14610887578063c87b56dd146108b2578063d2cab056146108ef578063d547cfb71461090b578063dd62ed3e14610936578063e0df5b6f14610973578063e2c792811461099c578063e90fdf75146109c7578063e985e9c514610a04578063f2fde38b14610a41578063f4a0a52814610a6a578063f6a5b8e614610a93578063f9800b9a14610abc575b600080fd5b34801561023f57600080fd5b50610248610ae5565b6040516102559190613a8e565b60405180910390f35b34801561026a57600080fd5b5061028560048036038101906102809190613afa565b610b73565b6040516102929190613b68565b60405180910390f35b3480156102a757600080fd5b506102c260048036038101906102bd9190613bbb565b610ba6565b005b3480156102d057600080fd5b506102eb60048036038101906102e69190613c14565b610c48565b6040516102f89190613c63565b60405180910390f35b34801561030d57600080fd5b5061032860048036038101906103239190613afa565b610f41565b005b34801561033657600080fd5b5061033f610fd3565b60405161034c9190613c8d565b60405180910390f35b34801561036157600080fd5b5061037c60048036038101906103779190613ca8565b610ff7565b6040516103899190613c8d565b60405180910390f35b34801561039e57600080fd5b506103a761100f565b6040516103b49190613c8d565b60405180910390f35b3480156103c957600080fd5b506103e460048036038101906103df9190613cd5565b611015565b6040516103f19190613c63565b60405180910390f35b34801561040657600080fd5b5061040f6117e0565b005b61042b60048036038101906104269190613afa565b611903565b005b34801561043957600080fd5b50610442611a89565b60405161044f9190613d41565b60405180910390f35b34801561046457600080fd5b5061046d611a8f565b60405161047a9190613d78565b60405180910390f35b34801561048f57600080fd5b506104aa60048036038101906104a59190613cd5565b611ab3565b005b3480156104b857600080fd5b506104c1611c38565b6040516104ce9190613c8d565b60405180910390f35b3480156104e357600080fd5b506104fe60048036038101906104f99190613ec8565b611c3e565b005b34801561050c57600080fd5b5061052760048036038101906105229190613ca8565b611cd1565b6040516105349190613c8d565b60405180910390f35b34801561054957600080fd5b50610564600480360381019061055f9190613afa565b611ce9565b6040516105719190613b68565b60405180910390f35b34801561058657600080fd5b5061058f611d8c565b60405161059c9190613c8d565b60405180910390f35b3480156105b157600080fd5b506105ba611d92565b6040516105c79190613c63565b60405180910390f35b3480156105dc57600080fd5b506105f760048036038101906105f29190613ca8565b611da5565b6040516106049190613c8d565b60405180910390f35b34801561061957600080fd5b50610622611dbd565b60405161062f9190613c8d565b60405180910390f35b34801561064457600080fd5b5061065f600480360381019061065a9190613ff6565b611dc3565b005b34801561066d57600080fd5b50610688600480360381019061068391906140a3565b611f03565b005b34801561069657600080fd5b506106b160048036038101906106ac9190613afa565b611f92565b005b3480156106bf57600080fd5b506106da60048036038101906106d59190613afa565b612023565b005b6106e46120b2565b005b3480156106f257600080fd5b506106fb6121a0565b6040516107089190613b68565b60405180910390f35b34801561071d57600080fd5b50610738600480360381019061073391906140d0565b6121c4565b005b34801561074657600080fd5b5061074f61220d565b60405161075c9190613a8e565b60405180910390f35b34801561077157600080fd5b5061077a61229b565b6040516107879190613c8d565b60405180910390f35b34801561079c57600080fd5b506107b760048036038101906107b2919061411d565b6122a1565b005b3480156107c557600080fd5b506107e060048036038101906107db9190613c14565b612404565b6040516107ed9190613c63565b60405180910390f35b34801561080257600080fd5b5061081d60048036038101906108189190613ca8565b612419565b60405161082a919061421b565b60405180910390f35b34801561083f57600080fd5b50610848612516565b6040516108559190613c8d565b60405180910390f35b34801561086a57600080fd5b5061088560048036038101906108809190614293565b61251c565b005b34801561089357600080fd5b5061089c6126a7565b6040516108a99190613c8d565b60405180910390f35b3480156108be57600080fd5b506108d960048036038101906108d49190613afa565b6126ad565b6040516108e69190613a8e565b60405180910390f35b61090960048036038101906109049190614371565b6126e1565b005b34801561091757600080fd5b50610920612905565b60405161092d9190613a8e565b60405180910390f35b34801561094257600080fd5b5061095d600480360381019061095891906143d1565b612993565b60405161096a9190613c8d565b60405180910390f35b34801561097f57600080fd5b5061099a60048036038101906109959190614411565b6129b8565b005b3480156109a857600080fd5b506109b1612a50565b6040516109be9190613c8d565b60405180910390f35b3480156109d357600080fd5b506109ee60048036038101906109e99190613afa565b612a74565b6040516109fb9190613c8d565b60405180910390f35b348015610a1057600080fd5b50610a2b6004803603810190610a2691906143d1565b612a91565b604051610a389190613c63565b60405180910390f35b348015610a4d57600080fd5b50610a686004803603810190610a639190613ca8565b612ac0565b005b348015610a7657600080fd5b50610a916004803603810190610a8c9190613afa565b612c48565b005b348015610a9f57600080fd5b50610aba6004803603810190610ab59190613afa565b612cd7565b005b348015610ac857600080fd5b50610ae36004803603810190610ade9190613afa565b612d66565b005b60018054610af290614489565b80601f0160208091040260200160405190810160405280929190818152602001828054610b1e90614489565b8015610b6b5780601f10610b4057610100808354040283529160200191610b6b565b820191906000526020600020905b815481529060010190602001808311610b4e57829003601f168201915b505050505081565b60086020528060005260406000206000915054906101000a900473ffffffffffffffffffffffffffffffffffffffff1681565b60008054906101000a900473ffffffffffffffffffffffffffffffffffffffff1673ffffffffffffffffffffffffffffffffffffffff163373ffffffffffffffffffffffffffffffffffffffff1614610c2b576040517f82b4290000000000000000000000000000000000000000000000000000000000815260040160405180910390fd5b80601260006101000a81548160ff02191690831515021790555050565b60006004548211158015610c5c5750600082115b15610e50576000600a600084815260200190815260200160002060009054906101000a900473ffffffffffffffffffffffffffffffffffffffff1690508073ffffffffffffffffffffffffffffffffffffffff163373ffffffffffffffffffffffffffffffffffffffff1614158015610d5c5750600960008273ffffffffffffffffffffffffffffffffffffffff1673ffffffffffffffffffffffffffffffffffffffff16815260200190815260200160002060003373ffffffffffffffffffffffffffffffffffffffff1673ffffffffffffffffffffffffffffffffffffffff16815260200190815260200160002060009054906101000a900460ff16155b15610d93576040517f82b4290000000000000000000000000000000000000000000000000000000000815260040160405180910390fd5b836008600085815260200190815260200160002060006101000a81548173ffffffffffffffffffffffffffffffffffffffff021916908373ffffffffffffffffffffffffffffffffffffffff1602179055508373ffffffffffffffffffffffffffffffffffffffff168173ffffffffffffffffffffffffffffffffffffffff167f8c5be1e5ebec7d5bd14f71427d1e84f3dd0314c0f7b2291e5b200ac8c7c3b92585604051610e429190613c8d565b60405180910390a350610f37565b81600760003373ffffffffffffffffffffffffffffffffffffffff1673ffffffffffffffffffffffffffffffffffffffff16815260200190815260200160002060008573ffffffffffffffffffffffffffffffffffffffff1673ffffffffffffffffffffffffffffffffffffffff168152602001908152602001600020819055508273ffffffffffffffffffffffffffffffffffffffff163373ffffffffffffffffffffffffffffffffffffffff167f8c5be1e5ebec7d5bd14f71427d1e84f3dd0314c0f7b2291e5b200ac8c7c3b92584604051610f2e9190613c8d565b60405180910390a35b6001905092915050565b60008054906101000a900473ffffffffffffffffffffffffffffffffffffffff1673ffffffffffffffffffffffffffffffffffffffff163373ffffffffffffffffffffffffffffffffffffffff1614610fc6576040517f82b4290000000000000000000000000000000000000000000000000000000000815260040160405180910390fd5b610fd03382612df5565b50565b7f000000000000000000000000000000000000000000000000000000000000000081565b60156020528060005260406000206000915090505481565b60145481565b6000600454821161164f57600a600083815260200190815260200160002060009054906101000a900473ffffffffffffffffffffffffffffffffffffffff1673ffffffffffffffffffffffffffffffffffffffff168473ffffffffffffffffffffffffffffffffffffffff16146110b8576040517fddb5de5e00000000000000000000000000000000000000000000000000000000815260040160405180910390fd5b600073ffffffffffffffffffffffffffffffffffffffff168473ffffffffffffffffffffffffffffffffffffffff160361111e576040517fddb5de5e00000000000000000000000000000000000000000000000000000000815260040160405180910390fd5b600073ffffffffffffffffffffffffffffffffffffffff168373ffffffffffffffffffffffffffffffffffffffff1603611184576040517f9c8d2cd200000000000000000000000000000000000000000000000000000000815260040160405180910390fd5b8373ffffffffffffffffffffffffffffffffffffffff163373ffffffffffffffffffffffffffffffffffffffff16141580156112475750600960008573ffffffffffffffffffffffffffffffffffffffff1673ffffffffffffffffffffffffffffffffffffffff16815260200190815260200160002060003373ffffffffffffffffffffffffffffffffffffffff1673ffffffffffffffffffffffffffffffffffffffff16815260200190815260200160002060009054906101000a900460ff16155b80156112b257506008600083815260200190815260200160002060009054906101000a900473ffffffffffffffffffffffffffffffffffffffff1673ffffffffffffffffffffffffffffffffffffffff163373ffffffffffffffffffffffffffffffffffffffff1614155b156112e9576040517f82b4290000000000000000000000000000000000000000000000000000000000815260040160405180910390fd5b82600a600084815260200190815260200160002060006101000a81548173ffffffffffffffffffffffffffffffffffffffff021916908373ffffffffffffffffffffffffffffffffffffffff1602179055506008600083815260200190815260200160002060006101000a81549073ffffffffffffffffffffffffffffffffffffffff02191690556000600b60008673ffffffffffffffffffffffffffffffffffffffff1673ffffffffffffffffffffffffffffffffffffffff1681526020019081526020016000206001600b60008873ffffffffffffffffffffffffffffffffffffffff1673ffffffffffffffffffffffffffffffffffffffff1681526020019081526020016000208054905061140191906144e9565b815481106114125761141161451d565b5b9060005260206000200154905080600b60008773ffffffffffffffffffffffffffffffffffffffff1673ffffffffffffffffffffffffffffffffffffffff168152602001908152602001600020600c600086815260200190815260200160002054815481106114845761148361451d565b5b9060005260206000200181905550600b60008673ffffffffffffffffffffffffffffffffffffffff1673ffffffffffffffffffffffffffffffffffffffff1681526020019081526020016000208054806114e1576114e061454c565b5b60019003818190600052602060002001600090559055600c600084815260200190815260200160002054600c600083815260200190815260200160002081905550600b60008573ffffffffffffffffffffffffffffffffffffffff1673ffffffffffffffffffffffffffffffffffffffff1681526020019081526020016000208390806001815401808255809150506001900390600052602060002001600090919091909150556001600b60008673ffffffffffffffffffffffffffffffffffffffff1673ffffffffffffffffffffffffffffffffffffffff168152602001908152602001600020805490506115d791906144e9565b600c600085815260200190815260200160002081905550828473ffffffffffffffffffffffffffffffffffffffff168673ffffffffffffffffffffffffffffffffffffffff167fddf252ad1be2c89b69c2b068fc378daa952ba7f163c4a11628f55a4df523b3ef60405160405180910390a4506117d5565b6000600760008673ffffffffffffffffffffffffffffffffffffffff1673ffffffffffffffffffffffffffffffffffffffff16815260200190815260200160002060003373ffffffffffffffffffffffffffffffffffffffff1673ffffffffffffffffffffffffffffffffffffffff16815260200190815260200160002054905082811015611713576040517f08c379a000000000000000000000000000000000000000000000000000000000815260040161170a90614613565b60405180910390fd5b7fffffffffffffffffffffffffffffffffffffffffffffffffffffffffffffffff81146117c757828161174691906144e9565b600760008773ffffffffffffffffffffffffffffffffffffffff1673ffffffffffffffffffffffffffffffffffffffff16815260200190815260200160002060003373ffffffffffffffffffffffffffffffffffffffff1673ffffffffffffffffffffffffffffffffffffffff168152602001908152602001600020819055505b6117d2858585613110565b50505b600190509392505050565b60008054906101000a900473ffffffffffffffffffffffffffffffffffffffff1673ffffffffffffffffffffffffffffffffffffffff163373ffffffffffffffffffffffffffffffffffffffff1614611865576040517f82b4290000000000000000000000000000000000000000000000000000000000815260040160405180910390fd5b60008060006101000a81548173ffffffffffffffffffffffffffffffffffffffff021916908373ffffffffffffffffffffffffffffffffffffffff160217905550600073ffffffffffffffffffffffffffffffffffffffff163373ffffffffffffffffffffffffffffffffffffffff167f8be0079c531659141344cd1fd0a4f28419497f9722a3daafe3b4186f6b6457e060405160405180910390a3565b601354421015611948576040517f08c379a000000000000000000000000000000000000000000000000000000000815260040161193f9061467f565b60405180910390fd5b80600e54611956919061469f565b3414611997576040517f08c379a000000000000000000000000000000000000000000000000000000000815260040161198e9061472d565b60405180910390fd5b60145481601660003373ffffffffffffffffffffffffffffffffffffffff1673ffffffffffffffffffffffffffffffffffffffff168152602001908152602001600020546119e5919061474d565b1115611a26576040517f08c379a0000000000000000000000000000000000000000000000000000000008152600401611a1d906147f3565b60405180910390fd5b80601660003373ffffffffffffffffffffffffffffffffffffffff1673ffffffffffffffffffffffffffffffffffffffff1681526020019081526020016000206000828254611a75919061474d565b92505081905550611a863382612df5565b50565b60115481565b7f000000000000000000000000000000000000000000000000000000000000000081565b6004548111158015611ac55750600081115b611b04576040517f08c379a0000000000000000000000000000000000000000000000000000000008152600401611afb9061485f565b60405180910390fd5b611b0f838383611015565b5060008273ffffffffffffffffffffffffffffffffffffffff163b14158015611bfc575063150b7a0260e01b7bffffffffffffffffffffffffffffffffffffffffffffffffffffffff19168273ffffffffffffffffffffffffffffffffffffffff1663150b7a023386856040518463ffffffff1660e01b8152600401611b97939291906148b6565b6020604051808303816000875af1158015611bb6573d6000803e3d6000fd5b505050506040513d601f19601f82011682018060405250810190611bda9190614958565b7bffffffffffffffffffffffffffffffffffffffffffffffffffffffff191614155b15611c33576040517f3da6393100000000000000000000000000000000000000000000000000000000815260040160405180910390fd5b505050565b60045481565b60008054906101000a900473ffffffffffffffffffffffffffffffffffffffff1673ffffffffffffffffffffffffffffffffffffffff163373ffffffffffffffffffffffffffffffffffffffff1614611cc3576040517f82b4290000000000000000000000000000000000000000000000000000000000815260040160405180910390fd5b611ccd8282613270565b5050565b60166020528060005260406000206000915090505481565b6000600a600083815260200190815260200160002060009054906101000a900473ffffffffffffffffffffffffffffffffffffffff169050600073ffffffffffffffffffffffffffffffffffffffff168173ffffffffffffffffffffffffffffffffffffffff1603611d87576040517fc5723b5100000000000000000000000000000000000000000000000000000000815260040160405180910390fd5b919050565b600e5481565b601260009054906101000a900460ff1681565b60066020528060005260406000206000915090505481565b60055481565b60008054906101000a900473ffffffffffffffffffffffffffffffffffffffff1673ffffffffffffffffffffffffffffffffffffffff163373ffffffffffffffffffffffffffffffffffffffff1614611e48576040517f82b4290000000000000000000000000000000000000000000000000000000000815260040160405180910390fd5b818190508484905014611e90576040517f08c379a0000000000000000000000000000000000000000000000000000000008152600401611e87906149d1565b60405180910390fd5b60005b84849050811015611efc57611ee8858583818110611eb457611eb361451d565b5b9050602002016020810190611ec99190613ca8565b848484818110611edc57611edb61451d565b5b90506020020135612404565b508080611ef4906149f1565b915050611e93565b5050505050565b60008054906101000a900473ffffffffffffffffffffffffffffffffffffffff1673ffffffffffffffffffffffffffffffffffffffff163373ffffffffffffffffffffffffffffffffffffffff1614611f88576040517f82b4290000000000000000000000000000000000000000000000000000000000815260040160405180910390fd5b8060118190555050565b60008054906101000a900473ffffffffffffffffffffffffffffffffffffffff1673ffffffffffffffffffffffffffffffffffffffff163373ffffffffffffffffffffffffffffffffffffffff1614612017576040517f82b4290000000000000000000000000000000000000000000000000000000000815260040160405180910390fd5b61202081613294565b50565b60008054906101000a900473ffffffffffffffffffffffffffffffffffffffff1673ffffffffffffffffffffffffffffffffffffffff163373ffffffffffffffffffffffffffffffffffffffff16146120a8576040517f82b4290000000000000000000000000000000000000000000000000000000000815260040160405180910390fd5b8060148190555050565b60008054906101000a900473ffffffffffffffffffffffffffffffffffffffff1673ffffffffffffffffffffffffffffffffffffffff163373ffffffffffffffffffffffffffffffffffffffff1614612137576040517f82b4290000000000000000000000000000000000000000000000000000000000815260040160405180910390fd5b60008054906101000a900473ffffffffffffffffffffffffffffffffffffffff1673ffffffffffffffffffffffffffffffffffffffff166108fc479081150290604051600060405180830381858888f1935050505015801561219d573d6000803e3d6000fd5b50565b60008054906101000a900473ffffffffffffffffffffffffffffffffffffffff1681565b60005b82829050811015612208576121f5338484848181106121e9576121e861451d565b5b90506020020135613320565b8080612200906149f1565b9150506121c7565b505050565b6002805461221a90614489565b80601f016020809104026020016040519081016040528092919081815260200182805461224690614489565b80156122935780601f1061226857610100808354040283529160200191612293565b820191906000526020600020905b81548152906001019060200180831161227657829003601f168201915b505050505081565b60135481565b600073ffffffffffffffffffffffffffffffffffffffff168273ffffffffffffffffffffffffffffffffffffffff1603612307576040517fccea9e6f00000000000000000000000000000000000000000000000000000000815260040160405180910390fd5b80600960003373ffffffffffffffffffffffffffffffffffffffff1673ffffffffffffffffffffffffffffffffffffffff16815260200190815260200160002060008473ffffffffffffffffffffffffffffffffffffffff1673ffffffffffffffffffffffffffffffffffffffff16815260200190815260200160002060006101000a81548160ff0219169083151502179055508173ffffffffffffffffffffffffffffffffffffffff163373ffffffffffffffffffffffffffffffffffffffff167f17307eab39ab6107e8899845ad3d59bd9653f200f220920489ca2b5937696c31836040516123f89190613c63565b60405180910390a35050565b6000612411338484613110565b905092915050565b6060600b60008373ffffffffffffffffffffffffffffffffffffffff1673ffffffffffffffffffffffffffffffffffffffff1681526020019081526020016000208054806020026020016040519081016040528092919081815260200182805480156124a457602002820191906000526020600020905b815481526020019060010190808311612490575b50505050509050600073ffffffffffffffffffffffffffffffffffffffff168273ffffffffffffffffffffffffffffffffffffffff1603612511576040517fc5723b5100000000000000000000000000000000000000000000000000000000815260040160405180910390fd5b919050565b60035481565b600454831115801561252e5750600083115b61256d576040517f08c379a00000000000000000000000000000000000000000000000000000000081526004016125649061485f565b60405180910390fd5b612578858585611015565b5060008473ffffffffffffffffffffffffffffffffffffffff163b14158015612669575063150b7a0260e01b7bffffffffffffffffffffffffffffffffffffffffffffffffffffffff19168473ffffffffffffffffffffffffffffffffffffffff1663150b7a0233888787876040518663ffffffff1660e01b8152600401612604959493929190614a66565b6020604051808303816000875af1158015612623573d6000803e3d6000fd5b505050506040513d601f19601f820116820180604052508101906126479190614958565b7bffffffffffffffffffffffffffffffffffffffffffffffffffffffff191614155b156126a0576040517f3da6393100000000000000000000000000000000000000000000000000000000815260040160405180910390fd5b5050505050565b600f5481565b6060600d6126ba836136e7565b6040516020016126cb929190614bae565b6040516020818303038152906040529050919050565b601260009054906101000a900460ff16612730576040517f08c379a000000000000000000000000000000000000000000000000000000000815260040161272790614c53565b60405180910390fd5b82600f5461273e919061469f565b341461277f576040517f08c379a00000000000000000000000000000000000000000000000000000000081526004016127769061472d565b60405180910390fd5b60145483601560003373ffffffffffffffffffffffffffffffffffffffff1673ffffffffffffffffffffffffffffffffffffffff168152602001908152602001600020546127cd919061474d565b111561280e576040517f08c379a0000000000000000000000000000000000000000000000000000000008152600401612805906147f3565b60405180910390fd5b61286161281a336137b5565b838380806020026020016040519081016040528093929190818152602001838360200280828437600081840152601f19601f820116905080830192505050505050506137e5565b6128a0576040517f08c379a000000000000000000000000000000000000000000000000000000000815260040161289790614cbf565b60405180910390fd5b82601560003373ffffffffffffffffffffffffffffffffffffffff1673ffffffffffffffffffffffffffffffffffffffff16815260200190815260200160002060008282546128ef919061474d565b925050819055506129003384612df5565b505050565b600d805461291290614489565b80601f016020809104026020016040519081016040528092919081815260200182805461293e90614489565b801561298b5780601f106129605761010080835404028352916020019161298b565b820191906000526020600020905b81548152906001019060200180831161296e57829003601f168201915b505050505081565b6007602052816000526040600020602052806000526040600020600091509150505481565b60008054906101000a900473ffffffffffffffffffffffffffffffffffffffff1673ffffffffffffffffffffffffffffffffffffffff163373ffffffffffffffffffffffffffffffffffffffff1614612a3d576040517f82b4290000000000000000000000000000000000000000000000000000000000815260040160405180910390fd5b80600d9081612a4c9190614e76565b5050565b7f000000000000000000000000000000000000000000000000000000000000000081565b6000600c6000838152602001908152602001600020549050919050565b60096020528160005260406000206020528060005260406000206000915091509054906101000a900460ff1681565b60008054906101000a900473ffffffffffffffffffffffffffffffffffffffff1673ffffffffffffffffffffffffffffffffffffffff163373ffffffffffffffffffffffffffffffffffffffff1614612b45576040517f82b4290000000000000000000000000000000000000000000000000000000000815260040160405180910390fd5b600073ffffffffffffffffffffffffffffffffffffffff168173ffffffffffffffffffffffffffffffffffffffff1603612bab576040517f49e27cff00000000000000000000000000000000000000000000000000000000815260040160405180910390fd5b806000806101000a81548173ffffffffffffffffffffffffffffffffffffffff021916908373ffffffffffffffffffffffffffffffffffffffff1602179055508073ffffffffffffffffffffffffffffffffffffffff163373ffffffffffffffffffffffffffffffffffffffff167f8be0079c531659141344cd1fd0a4f28419497f9722a3daafe3b4186f6b6457e060405160405180910390a350565b60008054906101000a900473ffffffffffffffffffffffffffffffffffffffff1673ffffffffffffffffffffffffffffffffffffffff163373ffffffffffffffffffffffffffffffffffffffff1614612ccd576040517f82b4290000000000000000000000000000000000000000000000000000000000815260040160405180910390fd5b80600e8190555050565b60008054906101000a900473ffffffffffffffffffffffffffffffffffffffff1673ffffffffffffffffffffffffffffffffffffffff163373ffffffffffffffffffffffffffffffffffffffff1614612d5c576040517f82b4290000000000000000000000000000000000000000000000000000000000815260040160405180910390fd5b80600f8190555050565b60008054906101000a900473ffffffffffffffffffffffffffffffffffffffff1673ffffffffffffffffffffffffffffffffffffffff163373ffffffffffffffffffffffffffffffffffffffff1614612deb576040517f82b4290000000000000000000000000000000000000000000000000000000000815260040160405180910390fd5b8060138190555050565b60035481600454612e06919061474d565b1115612e47576040517f08c379a0000000000000000000000000000000000000000000000000000000008152600401612e3e90614f94565b60405180910390fd5b600073ffffffffffffffffffffffffffffffffffffffff168273ffffffffffffffffffffffffffffffffffffffff1603612ead576040517f9c8d2cd200000000000000000000000000000000000000000000000000000000815260040160405180910390fd5b806004600082825401925050819055506000600182600454612ecf91906144e9565b612ed9919061474d565b90505b600454811161310b57600073ffffffffffffffffffffffffffffffffffffffff16600a600083815260200190815260200160002060009054906101000a900473ffffffffffffffffffffffffffffffffffffffff1673ffffffffffffffffffffffffffffffffffffffff1614612f7e576040517f23369fa600000000000000000000000000000000000000000000000000000000815260040160405180910390fd5b82600a600083815260200190815260200160002060006101000a81548173ffffffffffffffffffffffffffffffffffffffff021916908373ffffffffffffffffffffffffffffffffffffffff160217905550600b60008473ffffffffffffffffffffffffffffffffffffffff1673ffffffffffffffffffffffffffffffffffffffff1681526020019081526020016000208190806001815401808255809150506001900390600052602060002001600090919091909150556001600b60008573ffffffffffffffffffffffffffffffffffffffff1673ffffffffffffffffffffffffffffffffffffffff1681526020019081526020016000208054905061308591906144e9565b600c600083815260200190815260200160002081905550808373ffffffffffffffffffffffffffffffffffffffff16600073ffffffffffffffffffffffffffffffffffffffff167fddf252ad1be2c89b69c2b068fc378daa952ba7f163c4a11628f55a4df523b3ef60405160405180910390a48080613103906149f1565b915050612edc565b505050565b600080600660008673ffffffffffffffffffffffffffffffffffffffff1673ffffffffffffffffffffffffffffffffffffffff168152602001908152602001600020541161315d57600080fd5b81600660008673ffffffffffffffffffffffffffffffffffffffff1673ffffffffffffffffffffffffffffffffffffffff16815260200190815260200160002060008282546131ac91906144e9565b9250508190555081600660008573ffffffffffffffffffffffffffffffffffffffff1673ffffffffffffffffffffffffffffffffffffffff168152602001908152602001600020600082825401925050819055508273ffffffffffffffffffffffffffffffffffffffff168473ffffffffffffffffffffffffffffffffffffffff167fe59fdd36d0d223c0c7d996db7ad796880f45e1936cb0bb7ac102e7082e0314878460405161325d9190613c8d565b60405180910390a3600190509392505050565b816001908161327f9190614e76565b50806002908161328f9190614e76565b505050565b7f0000000000000000000000000000000000000000000000000000000000000000816003546132c3919061474d565b1115613304576040517f08c379a00000000000000000000000000000000000000000000000000000000081526004016132fb90615026565b60405180910390fd5b8060036000828254613316919061474d565b9250508190555050565b600073ffffffffffffffffffffffffffffffffffffffff168273ffffffffffffffffffffffffffffffffffffffff1603613386576040517fddb5de5e00000000000000000000000000000000000000000000000000000000815260040160405180910390fd5b600a600082815260200190815260200160002060009054906101000a900473ffffffffffffffffffffffffffffffffffffffff1673ffffffffffffffffffffffffffffffffffffffff168273ffffffffffffffffffffffffffffffffffffffff161461341e576040517fddb5de5e00000000000000000000000000000000000000000000000000000000815260040160405180910390fd5b6000600b60008473ffffffffffffffffffffffffffffffffffffffff1673ffffffffffffffffffffffffffffffffffffffff1681526020019081526020016000206001600b60008673ffffffffffffffffffffffffffffffffffffffff1673ffffffffffffffffffffffffffffffffffffffff168152602001908152602001600020805490506134ae91906144e9565b815481106134bf576134be61451d565b5b9060005260206000200154905080600b60008573ffffffffffffffffffffffffffffffffffffffff1673ffffffffffffffffffffffffffffffffffffffff168152602001908152602001600020600c600085815260200190815260200160002054815481106135315761353061451d565b5b9060005260206000200181905550600b60008473ffffffffffffffffffffffffffffffffffffffff1673ffffffffffffffffffffffffffffffffffffffff16815260200190815260200160002080548061358e5761358d61454c565b5b60019003818190600052602060002001600090559055600c600083815260200190815260200160002054600c600083815260200190815260200160002081905550600c600083815260200190815260200160002060009055600a600083815260200190815260200160002060006101000a81549073ffffffffffffffffffffffffffffffffffffffff02191690556008600083815260200190815260200160002060006101000a81549073ffffffffffffffffffffffffffffffffffffffff021916905560056000815480929190600101919050555081600073ffffffffffffffffffffffffffffffffffffffff168473ffffffffffffffffffffffffffffffffffffffff167fddf252ad1be2c89b69c2b068fc378daa952ba7f163c4a11628f55a4df523b3ef60405160405180910390a46136e13084670de0b6b3a7640000620186a06136dc919061469f565b613110565b50505050565b6060600060016136f6846137fc565b01905060008167ffffffffffffffff81111561371557613714613d9d565b5b6040519080825280601f01601f1916602001820160405280156137475781602001600182028036833780820191505090505b509050600082602001820190505b6001156137aa578080600190039150507f3031323334353637383961626364656600000000000000000000000000000000600a86061a8153600a858161379e5761379d615046565b5b04945060008503613755575b819350505050919050565b6000816040516020016137c891906150bd565b604051602081830303815290604052805190602001209050919050565b60006137f4826011548561394f565b905092915050565b600080600090507a184f03e93ff9f4daa797ed6e38ed64bf6a1f010000000000000000831061385a577a184f03e93ff9f4daa797ed6e38ed64bf6a1f01000000000000000083816138505761384f615046565b5b0492506040810190505b6d04ee2d6d415b85acef81000000008310613897576d04ee2d6d415b85acef8100000000838161388d5761388c615046565b5b0492506020810190505b662386f26fc1000083106138c657662386f26fc1000083816138bc576138bb615046565b5b0492506010810190505b6305f5e10083106138ef576305f5e10083816138e5576138e4615046565b5b0492506008810190505b612710831061391457612710838161390a57613909615046565b5b0492506004810190505b60648310613937576064838161392d5761392c615046565b5b0492506002810190505b600a8310613946576001810190505b80915050919050565b60008261395c8584613966565b1490509392505050565b60008082905060005b84518110156139b15761399c8286838151811061398f5761398e61451d565b5b60200260200101516139bc565b915080806139a9906149f1565b91505061396f565b508091505092915050565b60008183106139d4576139cf82846139e7565b6139df565b6139de83836139e7565b5b905092915050565b600082600052816020526040600020905092915050565b600081519050919050565b600082825260208201905092915050565b60005b83811015613a38578082015181840152602081019050613a1d565b60008484015250505050565b6000601f19601f8301169050919050565b6000613a60826139fe565b613a6a8185613a09565b9350613a7a818560208601613a1a565b613a8381613a44565b840191505092915050565b60006020820190508181036000830152613aa88184613a55565b905092915050565b6000604051905090565b600080fd5b600080fd5b6000819050919050565b613ad781613ac4565b8114613ae257600080fd5b50565b600081359050613af481613ace565b92915050565b600060208284031215613b1057613b0f613aba565b5b6000613b1e84828501613ae5565b91505092915050565b600073ffffffffffffffffffffffffffffffffffffffff82169050919050565b6000613b5282613b27565b9050919050565b613b6281613b47565b82525050565b6000602082019050613b7d6000830184613b59565b92915050565b60008115159050919050565b613b9881613b83565b8114613ba357600080fd5b50565b600081359050613bb581613b8f565b92915050565b600060208284031215613bd157613bd0613aba565b5b6000613bdf84828501613ba6565b91505092915050565b613bf181613b47565b8114613bfc57600080fd5b50565b600081359050613c0e81613be8565b92915050565b60008060408385031215613c2b57613c2a613aba565b5b6000613c3985828601613bff565b9250506020613c4a85828601613ae5565b9150509250929050565b613c5d81613b83565b82525050565b6000602082019050613c786000830184613c54565b92915050565b613c8781613ac4565b82525050565b6000602082019050613ca26000830184613c7e565b92915050565b600060208284031215613cbe57613cbd613aba565b5b6000613ccc84828501613bff565b91505092915050565b600080600060608486031215613cee57613ced613aba565b5b6000613cfc86828701613bff565b9350506020613d0d86828701613bff565b9250506040613d1e86828701613ae5565b9150509250925092565b6000819050919050565b613d3b81613d28565b82525050565b6000602082019050613d566000830184613d32565b92915050565b600060ff82169050919050565b613d7281613d5c565b82525050565b6000602082019050613d8d6000830184613d69565b92915050565b600080fd5b600080fd5b7f4e487b7100000000000000000000000000000000000000000000000000000000600052604160045260246000fd5b613dd582613a44565b810181811067ffffffffffffffff82111715613df457613df3613d9d565b5b80604052505050565b6000613e07613ab0565b9050613e138282613dcc565b919050565b600067ffffffffffffffff821115613e3357613e32613d9d565b5b613e3c82613a44565b9050602081019050919050565b82818337600083830152505050565b6000613e6b613e6684613e18565b613dfd565b905082815260208101848484011115613e8757613e86613d98565b5b613e92848285613e49565b509392505050565b600082601f830112613eaf57613eae613d93565b5b8135613ebf848260208601613e58565b91505092915050565b60008060408385031215613edf57613ede613aba565b5b600083013567ffffffffffffffff811115613efd57613efc613abf565b5b613f0985828601613e9a565b925050602083013567ffffffffffffffff811115613f2a57613f29613abf565b5b613f3685828601613e9a565b9150509250929050565b600080fd5b600080fd5b60008083601f840112613f6057613f5f613d93565b5b8235905067ffffffffffffffff811115613f7d57613f7c613f40565b5b602083019150836020820283011115613f9957613f98613f45565b5b9250929050565b60008083601f840112613fb657613fb5613d93565b5b8235905067ffffffffffffffff811115613fd357613fd2613f40565b5b602083019150836020820283011115613fef57613fee613f45565b5b9250929050565b600080600080604085870312156140105761400f613aba565b5b600085013567ffffffffffffffff81111561402e5761402d613abf565b5b61403a87828801613f4a565b9450945050602085013567ffffffffffffffff81111561405d5761405c613abf565b5b61406987828801613fa0565b925092505092959194509250565b61408081613d28565b811461408b57600080fd5b50565b60008135905061409d81614077565b92915050565b6000602082840312156140b9576140b8613aba565b5b60006140c78482850161408e565b91505092915050565b600080602083850312156140e7576140e6613aba565b5b600083013567ffffffffffffffff81111561410557614104613abf565b5b61411185828601613fa0565b92509250509250929050565b6000806040838503121561413457614133613aba565b5b600061414285828601613bff565b925050602061415385828601613ba6565b9150509250929050565b600081519050919050565b600082825260208201905092915050565b6000819050602082019050919050565b61419281613ac4565b82525050565b60006141a48383614189565b60208301905092915050565b6000602082019050919050565b60006141c88261415d565b6141d28185614168565b93506141dd83614179565b8060005b8381101561420e5781516141f58882614198565b9750614200836141b0565b9250506001810190506141e1565b5085935050505092915050565b6000602082019050818103600083015261423581846141bd565b905092915050565b60008083601f84011261425357614252613d93565b5b8235905067ffffffffffffffff8111156142705761426f613f40565b5b60208301915083600182028301111561428c5761428b613f45565b5b9250929050565b6000806000806000608086880312156142af576142ae613aba565b5b60006142bd88828901613bff565b95505060206142ce88828901613bff565b94505060406142df88828901613ae5565b935050606086013567ffffffffffffffff811115614300576142ff613abf565b5b61430c8882890161423d565b92509250509295509295909350565b60008083601f84011261433157614330613d93565b5b8235905067ffffffffffffffff81111561434e5761434d613f40565b5b60208301915083602082028301111561436a57614369613f45565b5b9250929050565b60008060006040848603121561438a57614389613aba565b5b600061439886828701613ae5565b935050602084013567ffffffffffffffff8111156143b9576143b8613abf565b5b6143c58682870161431b565b92509250509250925092565b600080604083850312156143e8576143e7613aba565b5b60006143f685828601613bff565b925050602061440785828601613bff565b9150509250929050565b60006020828403121561442757614426613aba565b5b600082013567ffffffffffffffff81111561444557614444613abf565b5b61445184828501613e9a565b91505092915050565b7f4e487b7100000000000000000000000000000000000000000000000000000000600052602260045260246000fd5b600060028204905060018216806144a157607f821691505b6020821081036144b4576144b361445a565b5b50919050565b7f4e487b7100000000000000000000000000000000000000000000000000000000600052601160045260246000fd5b60006144f482613ac4565b91506144ff83613ac4565b9250828203905081811115614517576145166144ba565b5b92915050565b7f4e487b7100000000000000000000000000000000000000000000000000000000600052603260045260246000fd5b7f4e487b7100000000000000000000000000000000000000000000000000000000600052603160045260246000fd5b7f5472616e7366657220616d6f756e74206578636565647320616c6c6f77616e6360008201527f652e20506c6561736520696e63726561736520796f757220616c6c6f77616e6360208201527f652e000000000000000000000000000000000000000000000000000000000000604082015250565b60006145fd604283613a09565b91506146088261457b565b606082019050919050565b6000602082019050818103600083015261462c816145f0565b9050919050565b7f5075626c6963204d696e74204e6f742053746172746564000000000000000000600082015250565b6000614669601783613a09565b915061467482614633565b602082019050919050565b600060208201905081810360008301526146988161465c565b9050919050565b60006146aa82613ac4565b91506146b583613ac4565b92508282026146c381613ac4565b915082820484148315176146da576146d96144ba565b5b5092915050565b7f45746865722073656e74206973206e6f7420636f727265637400000000000000600082015250565b6000614717601983613a09565b9150614722826146e1565b602082019050919050565b600060208201905081810360008301526147468161470a565b9050919050565b600061475882613ac4565b915061476383613ac4565b925082820190508082111561477b5761477a6144ba565b5b92915050565b7f4164647265737320616c726561647920636c61696d6564206d61784d696e744160008201527f6d6f756e74210000000000000000000000000000000000000000000000000000602082015250565b60006147dd602683613a09565b91506147e882614781565b604082019050919050565b6000602082019050818103600083015261480c816147d0565b9050919050565b7f496e76616c696420496400000000000000000000000000000000000000000000600082015250565b6000614849600a83613a09565b915061485482614813565b602082019050919050565b600060208201905081810360008301526148788161483c565b9050919050565b600082825260208201905092915050565b50565b60006148a060008361487f565b91506148ab82614890565b600082019050919050565b60006080820190506148cb6000830186613b59565b6148d86020830185613b59565b6148e56040830184613c7e565b81810360608301526148f681614893565b9050949350505050565b60007fffffffff0000000000000000000000000000000000000000000000000000000082169050919050565b61493581614900565b811461494057600080fd5b50565b6000815190506149528161492c565b92915050565b60006020828403121561496e5761496d613aba565b5b600061497c84828501614943565b91505092915050565b7f4d69736d617463686564206172726179206c656e677468730000000000000000600082015250565b60006149bb601883613a09565b91506149c682614985565b602082019050919050565b600060208201905081810360008301526149ea816149ae565b9050919050565b60006149fc82613ac4565b91507fffffffffffffffffffffffffffffffffffffffffffffffffffffffffffffffff8203614a2e57614a2d6144ba565b5b600182019050919050565b6000614a45838561487f565b9350614a52838584613e49565b614a5b83613a44565b840190509392505050565b6000608082019050614a7b6000830188613b59565b614a886020830187613b59565b614a956040830186613c7e565b8181036060830152614aa8818486614a39565b90509695505050505050565b600081905092915050565b60008190508160005260206000209050919050565b60008154614ae181614489565b614aeb8186614ab4565b94506001821660008114614b065760018114614b1b57614b4e565b60ff1983168652811515820286019350614b4e565b614b2485614abf565b60005b83811015614b4657815481890152600182019150602081019050614b27565b838801955050505b50505092915050565b6000614b62826139fe565b614b6c8185614ab4565b9350614b7c818560208601613a1a565b80840191505092915050565b7f2e6a736f6e000000000000000000000000000000000000000000000000000000815250565b6000614bba8285614ad4565b9150614bc68284614b57565b9150614bd182614b88565b6005820191508190509392505050565b7f5468652077686974656c6973742073616c65206973206e6f7420656e61626c6560008201527f6421000000000000000000000000000000000000000000000000000000000000602082015250565b6000614c3d602283613a09565b9150614c4882614be1565b604082019050919050565b60006020820190508181036000830152614c6c81614c30565b9050919050565b7f4164647265737320646f6573206e6f7420657869737420696e206c6973740000600082015250565b6000614ca9601e83613a09565b9150614cb482614c73565b602082019050919050565b60006020820190508181036000830152614cd881614c9c565b9050919050565b60006020601f8301049050919050565b600082821b905092915050565b600060088302614d2c7fffffffffffffffffffffffffffffffffffffffffffffffffffffffffffffffff82614cef565b614d368683614cef565b95508019841693508086168417925050509392505050565b6000819050919050565b6000614d73614d6e614d6984613ac4565b614d4e565b613ac4565b9050919050565b6000819050919050565b614d8d83614d58565b614da1614d9982614d7a565b848454614cfc565b825550505050565b600090565b614db6614da9565b614dc1818484614d84565b505050565b5b81811015614de557614dda600082614dae565b600181019050614dc7565b5050565b601f821115614e2a57614dfb81614abf565b614e0484614cdf565b81016020851015614e13578190505b614e27614e1f85614cdf565b830182614dc6565b50505b505050565b600082821c905092915050565b6000614e4d60001984600802614e2f565b1980831691505092915050565b6000614e668383614e3c565b9150826002028217905092915050565b614e7f826139fe565b67ffffffffffffffff811115614e9857614e97613d9d565b5b614ea28254614489565b614ead828285614de9565b600060209050601f831160018114614ee05760008415614ece578287015190505b614ed88582614e5a565b865550614f40565b601f198416614eee86614abf565b60005b82811015614f1657848901518255600182019150602085019450602081019050614ef1565b86831015614f335784890151614f2f601f891682614e3c565b8355505b6001600288020188555050505b505050505050565b7f536561736f6e4e4654204d696e74204f76657200000000000000000000000000600082015250565b6000614f7e601383613a09565b9150614f8982614f48565b602082019050919050565b60006020820190508181036000830152614fad81614f71565b9050919050565b7f746f74616c536561736f6e537570706c79206578636565647320746f74616c4e60008201527f4654537570706c79000000000000000000000000000000000000000000000000602082015250565b6000615010602883613a09565b915061501b82614fb4565b604082019050919050565b6000602082019050818103600083015261503f81615003565b9050919050565b7f4e487b7100000000000000000000000000000000000000000000000000000000600052601260045260246000fd5b60008160601b9050919050565b600061508d82615075565b9050919050565b600061509f82615082565b9050919050565b6150b76150b282613b47565b615094565b82525050565b60006150c982846150a6565b6014820191508190509291505056fea26469706673582212201e3270e42c11ee619fa1620b7dd0f8ebd32a4b6e41dce4e91f35abd7c97d2fdd64736f6c63430008140033697066733a2f2f516d623542426b6d364859576537797645476934757a4350414447754d396e7365374b625856557062684d4e52752f",
  "linkReferences": {},
  "deployedLinkReferences": {}
}